:020000041000EA
:1000000000B5324B212058609868022188439860DF
:10001000D860186158612E4B002199600221596106
:100020000121F02299502B49196001219960352056
:1000300000F044F80222904214D00621196600F024
:1000400034F8196E01211966002018661A6600F04E
:100050002CF8196E196E196E052000F02FF8012189
:100060000842F9D1002199601B49196000215960AB
:100070001A491B48016001219960EB211966A021F2
:10008000196600F012F800219960164914480160C1
:100090000121996001BC002800D000471248134993
:1000A000086003C880F30888084703B5996A0420EC
:1000B0000142FBD001200142F8D103BD02B5186610
:1000C0001866FFF7F2FF186E186E02BD00000240BE
:1000D000000000180000070000035F00212200005C
:1000E000F4000018222000A00001001008ED00E03C
:1000F00000000000000000000000000074B24E7A12
:1001000000200420F7010010C3010010C5010010F9
:10011000C1010010C1010010C1010010C101001097
:10012000C1010010C1010010C1010010C701001081
:10013000C1010010C1010010C9010010CB01001065
:10014000CD010010CD010010CD010010CD01001037
:10015000CD010010CD010010CD010010CD01001027
:10016000CD010010CD010010CD010010CD01001017
:10017000CD010010CD010010CD010010CD01001007
:10018000CD010010CD010010CD010010CD010010F7
:10019000CD010010CD010010CD010010CD010010E7
:1001A000CD010010CD010010CD010010CD010010D7
:1001B000CD010010CD010010CD010010CD010010C7
:1001C00000BE00BE00BE00BE00BE00BEEFF3058054
:1001D000103800BEF2EB88715441001074410010D9
:1001E0003802001090A31AE71E481F49086006C88D
:1001F00081F3088810471D480068002801D019487D
:10020000F3E70DA40ECC002902D000F012F8F9E7B4
:100210001749184A002000E001C19142FCD116495B
:100220008847164988471649884700BEFDE701C937
:1002300001C29A42FBD3704774410010C0000020F5
:10024000A0110020545200100000042000000420DF
:100250005452001000100420001004200000000080
:10026000704700000000000008ED00E0000000D032
:10027000A011002000180020F1290010B90500107D
:10028000E9290010F8B5C04606480749091A8B103D
:10029000C90FC91810B5491003D0044B002B00D06A
:1002A000984710BDA0110020A01100200000000000
:1002B000054B10B5002B03D00449054800E000BFF2
:1002C000FFF7E2FF10BDC04600000000C41600208A
:1002D000683C0010164B10B51A78002A0AD000228C
:1002E0001A70D02380221B06D2005A61114B186865
:1002F000C11710BD01221A70D02380220E4C1B069C
:10030000D2009A61206802F0CFFA0C4B0C4A1B789D
:10031000002B06D00B4B02F050F902F07BF9206065
:10032000E4E7084B02F04EF902F074F92060DDE7D3
:10033000FD170020980100201C1600209C010020C1
:100340007B14AE47E17A843F10B504001F2101F011
:100350005FF800222000002101F074F80021200045
:1003600001F084F810BDC046F0B5C6461C0000B5CB
:10037000304B0E00C118090D063186B00500C9B218
:100380002000170001F044F80123310022000093FF
:10039000280002F023FD80235B020293FB1CFA017C
:1003A0001B031343244AA40213400393F823DB01E5
:1003B0001C4080239B0523430593204B0520049379
:1003C00001F04CFF02F015FA1D49041C0C9802F0D4
:1003D000CCF9011C201C02F0B4F9EC21890502F0D3
:1003E000ADF9804602F05AFA84B20023002C0ED0F8
:1003F000200002F0FEF9011C404602F09CF9872122
:10040000C90502F0B2F902F049FAC3B21B02240492
:100410003A001C43310002AB2800029402F038FD80
:100420000123B3402A6813432B6006B080BCB84652
:10043000F0BDC0460000E0AFFFFFFF9F00000E5080
:1004400000002041F0B5194E83B005001849300076
:1004500002F048FC174F0400002130003E6002F01B
:1004600025FC154B01001860144B220038680093DE
:100470002B00FFF779FF00224821114B5A5200212F
:100480001A605A609A60DA601A615A619A61DA6198
:100490001A625A629A62DA621A635A639A63DA6378
:1004A0001A645A644A32995403B0F0BD00002050D7
:1004B000903D0010C0160020F8170020005043495E
:1004C00020130020104B70B51A68104B10481C68A0
:1004D00001232100060010318B40A4004B36141973
:1004E000057851680B42FCD12561457851680B4273
:1004F000FCD12561857851680B42FCD10330256120
:100500008642EDD170BDC046C0160020F81700200D
:1005100020130020F0B5DE4657464E464546802261
:10052000E0B5224C0F00A54400210400D20068462B
:1005300002F012FA1E4B684619009B4600F08CFE32
:10054000002F27DB002399469846803300260021A0
:1005500000259A46043C42466368684612B201365A
:1005600000F0C6FE0434B74214DB206803F0C2F981
:100570000435C3005D195346181A854208D3012378
:100580009C46E1444B46DB00002100259846E2E70B
:1005900029B2E0E75946684600F05EFE054B9D44EF
:1005A000F0BCBB46B246A946A046F0BDFCFBFFFF2F
:1005B0007403002004040000F0B5DE464E464546B4
:1005C0005746E0B5E84C8025A54402F005FB02F053
:1005D000ADFC1A20FFF7B8FE1B20FFF7B5FE162072
:1005E00000F058FFD02480232406DB030121A362FE
:1005F0000022162000F026FFED000A2000F04AFF3E
:1006000065620720FFF71EFF00234822D74CFA201F
:10061000A352002223606360A360E36023616361EF
:10062000A361E36123626362A362E36223636363A2
:10063000A363E3632364636480004A33E25401F0FC
:10064000EFFBCB49CB4802F069FD03210E2000F0FF
:10065000DFFE03210F2000F0DBFE002201210E202F
:1006600000F0F0FE002201210F2000F0EBFE00F070
:10067000C7FDC14B1E001800209300F0B5FD28AB4C
:100680002A001800002102F067F9310028A800F0C4
:10069000E3FD25AB1900B94A61CA61C11D001026EE
:1006A00032B2052108CD28A8083600F021FE282EF8
:1006B000F6D1209928A800F0CFFDB14B0593B14B9E
:1006C0000693B14B0E93B14B1593B14B1693B14BAF
:1006D0000793B14B1893B14B1493B14B1393B14B98
:1006E0001993B14B1A93B14B9B46B14B5E461B938A
:1006F000B04B1293B04B2193B04B2293B04B23934A
:10070000B04B1793B04B9A465346E0221B68D20178
:100710001340AE4A13600422AD4B1A60FC325346BC
:100720001B681342FBD053465F681A6880235B0145
:100730005340E022D2011340A44ABFB21360042206
:10074000A34B1A60FC3253461B681342FBD053463E
:100750005B689BB20F93059B1D6801F0EDF92900C2
:1007600001F0AEFAD0231B065D6880236420DB0312
:100770001D4001F055FB059B1B689846002B00D0DF
:1007800047E1069B1B680A93DB170B9301F0D4F932
:10079000804601F05BFC0A9A0B9B12184B41002B20
:1007A00002DA01228B4B5242012102910021019178
:1007B0000E994046009101F0C3F9059B1860002D89
:1007C0007BD0854B9F424BD90F990122994204D887
:1007D0000022824B8B4252415242012317990B60F7
:1007E000189B1A60059B1D6801F0A6F9290001F00D
:1007F00067FA159F12983D6802F0CCFF169AAB007D
:10080000D05029001000FFF785FEC82001F008FB3A
:100810003B6801333B60059B1D68002D01D000F053
:10082000C3FC069B1B681E93DB171F9301F084F922
:10083000050001F00BFC1E9A1F9B12184B41002B68
:1008400002DA0122634B52420121029100210191FF
:100850000E992800009101F073F9059B186053E789
:100860005E4A974200D9DAE00F980121984201D8F8
:1008700000F089FC0123179A5B421360189B1960F2
:10088000059B1D6801F058F9290001F019FA159D22
:10089000296800290ADD169F0139296089007858E6
:1008A00002F04EF8002229688B00FA501698FFF7E4
:1008B00031FEC82001F0B4FA26E7159B1B68984664
:1008C000002B00DC7DE7169B1C97994600239B4676
:1008D00033005E469B461D944B4600241F68079DCF
:1008E00004E001340835372C00D18FE039002800AE
:1008F00002F0BCFF0028F4D1079BE4009C4664444E
:100900006368C820069A4000136001F089FA059BCD
:100910001C68002C64D1069B1B680893DB170993A5
:1009200001F00AF9040001F091FB089A099B1218E2
:100930004B41002B02DA0122264B52420121029147
:10094000002101910E992000009101F0F9F8059B1A
:100950000136186004239C46E144B045BCD15E4694
:100960001C9F1D9C2DE7C0465CF7FFFF2013002055
:10097000801A0600300C002074030020A03D0010F7
:10098000E815002098010020D5020010B8160020BC
:1009900040160020BC01002024160020FC17002077
:1009A00038160020DC1600207C030020B00B00204D
:1009B000A0010020BC160020683C00106C3C001018
:1009C000703C00102016002000C0044000D00440FD
:1009D00000E00440FFFFFF7FAC0D0000DB050000DE
:1009E00001F0AAF8210001F06BF9069B1B680C933B
:1009F000DB170D9301F0A0F8040001F027FB0C9A1F
:100A00000D9B12184B41002B98DA94E701235B42AF
:100A100077E701F091F8414601F052F9B1E6002183
:100A2000179801600F98984200D956E2904200D979
:100A30009EE10123189A5B421360149A02331370EB
:100A4000139B00211B68181C984601F0CDFE00285E
:100A500000D1B4E380214046C90501F0B5FE00286D
:100A600000D0AAE34046DC4901F0AEFE002800D0E9
:100A7000A3E3FC214046890501F05DFE8046139BFF
:100A80001860052399461A9B00250A2740469B4675
:100A9000326853009B18E218557095707268E554DF
:100AA00053009B18E21855709570B268E5545300D6
:100AB0009B18E21855709570F268E55453009B1826
:100AC000E218557095703269E55453009B18E2188E
:100AD000557095707269E55453009B18E218557073
:100AE0009570B269E55453009B18E21855709570E3
:100AF000F269E55453009B18E218E554557095705F
:100B0000326A53009B18E21855709570726AE5546A
:100B100053009B18E21855709570B26AE554530063
:100B20009B18E21855709570F26AE55453009B18B3
:100B3000E21855709570326BE55453009B18E2181B
:100B400055709570726BE55453009B18E218557000
:100B50009570B26BE55453009B18E2185570E5543C
:100B6000957001F06DFE4B464A4680461B019A1A6D
:100B70000F901C93830058469C4643441901C91AA0
:100B80008B189B00C358002B00DCE2E0584652183B
:100B9000D118890041584800804641446018675484
:100BA00047708770591E012B00D1D2E0584651186A
:100BB0008900415848008046414460186754477096
:100BC0008770991E022B00D1C3E058465118890046
:100BD0004158480080464144601867544770877008
:100BE000D91E032B00D1B4E0584651188900415852
:100BF0004800804641446018675447708770191F49
:100C0000042B00D1A5E058465118890041584800EE
:100C1000804641446018675447708770591F052B00
:100C200000D196E058465118890041584800804646
:100C300041446018675447708770991F062B00D194
:100C400087E0584651188900415848008046414481
:100C50006018675447708770D91F072B79D05846A2
:100C60005118890041584800804641446018675433
:100C70001900477087700839082B6AD052185946F6
:100C800092008A5851008A18A118A7541A00093AEC
:100C90004F708F701D92092B5BD00F9A484690467B
:100CA0001C99C444091A604662460001801A09185A
:100CB00058461D9A8A189200805842001218A018AF
:100CC000A7541A00477087700A3A0A2B41D0584639
:100CD0008A189200805842001218A018A7541A00CF
:100CE000477087700B3A0B2B33D058468A18920006
:100CF000805842001218A018A7541A004770877035
:100D00000C3A0C2B25D058468A1892008058420085
:100D10001218A018A7541A00477087700D3A0D2BAF
:100D200017D058468A189200805842001218A0180E
:100D3000A7541A00477087700E3A0E2B09D05B46F5
:100D4000891889005A5853009B18E2185770E754C5
:100D50009770FFF7B7FB642001F062F801235B4254
:100D60009C46E1444B46012B04D0139B18688FE648
:100D7000189B1960139B1B68181C984601F060FDB6
:100D80001B9A8300D1580500129802F021FD07003C
:100D9000280001F033FD011C404601F0CCFCFC2191
:100DA000890501F011FD002848D1002100234022CF
:100DB000A354013AA1540232A354199B1B68002B7F
:100DC0006BDB7AD1E386A363FFF77CFBA0460025AB
:100DD000079F129C06E0C0460000A040013508377E
:100DE000372D56D02100380002F040FD0028F5D103
:100DF000079B44469C46ED0065446B68069AC820F4
:100E00000021136000F096FF149B1B78002B23D168
:100E1000059B1D68002D19D1069B1B681093DB17DD
:100E2000119300F089FE050001F010F9109A119B52
:100E300012184B41002B00DB06E502E52199022246
:100E4000380001F08FFD14219623B0E700F074FE06
:100E5000290000F035FFDFE78022FFA8D200002143
:100E6000A43001F079FD209DFFA82900A43000F0F6
:100E7000F3F9FFA82022129B0521A43000F038FAD4
:100E8000FFA82900A43000F0E7F90023149A13709A
:100E9000BEE7012344465B42B0E7129D280002F002
:100EA00029FDAC4602222299604401F05BFDCA4B49
:100EB0001422E3863823E25486E7129D280002F0CC
:100EC00019FDAC4602222399604401F04BFD392301
:100ED0009622E254C14B638776E70123189AC049F2
:100EE0001360149A1370139B1F68381C01F074FC74
:100EF000002800D14DE1FE21381C890501F064FC79
:100F0000002800D057E18121381CC90501F05CFCA4
:100F1000002800D04FE1FC21381C890501F00EFCAF
:100F2000139B071C186000239B460A3399465B46B7
:100F30000025381C0F93326853009B18E218557037
:100F400095707268E55453009B18E21855709570BF
:100F5000B268E55453009B18E21855709570F2681A
:100F6000E55453009B18E218557095703269E554AA
:100F700053009B18E218557095707269E554530040
:100F80009B18E21855709570B269E55453009B1890
:100F9000E21855709570F269E55453009B18E218F9
:100FA000E55455709570326A53009B18E2185570DD
:100FB0009570726AE55453009B18E218557095704D
:100FC000B26AE55453009B18E21855709570F26AA6
:100FD000E55453009B18E21855709570326BE55438
:100FE00053009B18E21855709570726BE5545300CE
:100FF0009B18E21855709570B26BE55453009B181E
:10100000E2185570E554957001F01AFC0F991C9088
:101010000B01591A9C4683001A18984613019B1A13
:101020005B181A9A9B00D258002A00DC9DE01A999E
:1010300048468B465B4459684F00BB465944671885
:101040007870605438004F468770012A00D18CE0D8
:101050009968480083465944601847706754877000
:10106000022A00D181E0D9684800834659446018BB
:10107000477067548770032A77D019694800834600
:1010800059446018477067548770042A6DD05969B5
:101090004800834659446018477067548770052A92
:1010A00063D0996948008346594460184770675473
:1010B0008770062A59D0D969480083465944601878
:1010C000477067548770072A4FD0196A48008346D3
:1010D00059446018477067548770082A45D05B6A86
:1010E0005900CB18E1184F70E7548F70092A3CD093
:1010F00063461C980F994044591A03011B1A5B1848
:101100001A999B008B465B44996A48004018211845
:101110008C460A21674621547970B9700A2A24D076
:10112000D86A844640006044271879702154B97009
:101130000B2A1AD0186B8446400060442718797037
:101140002154B9700C2A10D0586B8446400060447A
:10115000271879702154B9700D2A06D09A6B530064
:101160009B18E2185170E1549170FFF7ABF96420BD
:1011700000F056FE0F9B01330F93032B00D1F9E5CE
:10118000139B1868D7E60021824249414942FFF784
:1011900071FB199A1368002B00DDC4E60027139930
:1011A00001330F601360BEE600F0C6FC290000F0BA
:1011B00087FDFFF736FBFE21AEE6FE215AE4199AC1
:1011C0001368002B00DA5CE4064F1399013BB84624
:1011D0000F60136055E4C0469696FFFF961400001A
:1011E0000000C0400000D040037842788178D21AD5
:1011F000C37801325B1A0133534343607047C046E2
:10120000F0B54746CE4680B58BB003AC2200104BFC
:10121000802723CB23C223CB23C21B880026138025
:1012200026236B4499460B4B02AD984623782F70CA
:101230006B702A0002233C2140460096013401F0E5
:1012400095FF4C45F2D10BB0C0BCB946B046F0BDDD
:10125000D03F0010300C0020F0B557464E464546B2
:10126000DE462123E0B587B004AC23700B788346BB
:1012700063704B788A46A3702223E3704B88002763
:10128000A38016236B44994680239846174E03ADDE
:10129000424623782A706B702A0002233C213000DA
:1012A0000097013401F062FF4C45F1D153465B6871
:1012B0005D1C2800984601F031FB402304004246A3
:1012C00059460370013001F04DFB2B0022003C21F8
:1012D0003000009701F04AFF200001F031FB07B019
:1012E000F0BCBB46B246A946A046F0BD300C00207B
:1012F000F0B5DE4657464E464546E0B585B07829FE
:1013000049DC382A47DC1D78002D44D00724D61745
:101310003440A418E410E401A3463A4A02923A4A3F
:1013200003920133782931DC0326029A2C00525DA6
:101330003240022A01D1203CE5B2233DEDB2372DE7
:1013400032D8039AAD0052599746403C2F4AE400E8
:10135000155D12195478AA46A14694785779A0468B
:10136000D4789679A4461479D57901945A4654468E
:101370008A1884544C4682185470444694706446CB
:10138000D470019C577114719671D5711D78083114
:1013900009B2002DC5D105B0F0BCBB46B246A94686
:1013A000A046F0BD153CD1E700220025002600270D
:1013B00094469046914692460192D7E700220192C8
:1013C0007F32944600220025002600279046914651
:1013D0009246CBE70822019277329446773A00256D
:1013E00008260827904691469246BFE71422944665
:1013F00001926B3290466B3A002514267F27914666
:101400009246B3E751400010AC3D0010903E0010F2
:10141000094A83009A1810B514684022544080325B
:101420002240064CC000A44663441A60044B9C460C
:101430006044416010BDC04604C0014004D001407A
:1014400000400140074B8000C3181B68C900920090
:101450000A435A400C231340034A944660440360F5
:101460007047C04604C0014004D0014080000029FC
:1014700005D0064B9C464023604403607047044BF4
:101480009C46402360440360F8E7C04604E0014006
:1014900004F001400123D02283401206936293613D
:1014A000094A83009A1811684022514080320A404C
:1014B0000649C0008C4663441A60054B9C460523D0
:1014C000604443607047C04604C0014004D00140FE
:1014D000004001400FB400B5084883B001F0C8FBDC
:1014E000049B002B07D005A91800019101F048FAD0
:1014F000034801F0BDFB012001F05AFAC03C001086
:10150000D03C0010EFF3108072B6034A1368002B32
:10151000FCD0BFF35F8F70472C0100D0BFF35F8F0B
:101520000022024B1A6080F3108870472C0100D013
:1015300070B5EFF3108C72B60D4D2B68002BFCD0FC
:10154000BFF35F8F0724CB08C618C05C01230C4093
:10155000A3401C000440034207D118433070BFF37E
:101560005F8F2C608CF3108870BD1000FFF7B2FF06
:101570002C0100D0F8B54746CE46884680B5EFF33B
:10158000108C72B61C4D2C68002CFCD0BFF35F8F02
:101590009A4222D807210126894602E0013293426D
:1015A00018D34D4637001540AF40D4080119045DEB
:1015B0002742F3D110003C430C70BFF35F8F002231
:1015C0000D4B1A608CF3108800280EDBC0BCB946A6
:1015D000B046F8BD01204042EFE7BFF35F8F002324
:1015E0002B608CF31088012040424346002BEDD045
:1015F0000898FFF76FFFC0462C0100D0044A10780E
:10160000431CDBB2172B00D9102313707047C04660
:10161000EC0B00200021044B044ABFF35F8F02C390
:101620009342FAD17047C046000100D0800100D03B
:10163000054B064A1360064A136053609360D360FB
:1016400013615361936170478080808000E400E003
:1016500004E400E01F2318401E3B8340002905D00E
:10166000C021044A49005350136070478022014949
:101670008B50FAE700E100E070B50D00EFF3108643
:1016800072B60F4A1368002BFCD0BFF35F8F0D4B6F
:1016900010309B6884001B590B4A934203D09D4233
:1016A00001D000F083FE074B9B681D51BFF35F8F95
:1016B000BFF35F8F0022024B1A6086F3108870BD63
:1016C000240100D000ED00E0CD010010024B9C464B
:1016D00061448900016070474000003470B5114CCE
:1016E000114DAC420FD2FF262368002B0CD0FFF720
:1016F00085FF01002000FFF7E9FFA680BFF35F8FA1
:101700000834AC42F0D370BDFFF778FF0100200031
:10171000FFF7DCFF2671BFF35F8F0834AC42E3D3E1
:10172000F1E7C04698110020A01100200A4B19686B
:10173000EFF3108072B60A68002AFCD0BFF35F8F07
:101740001B68BFF35F8F00221A6080F3108840BFD0
:10175000002000217047C046F4170020F0B5DE4697
:1017600057464E464546E0B587B0EFF30583032262
:1017700001251A40954091008846A946B34B039233
:101780005C58B34B1D60B34B04934B46B248436364
:101790000823E55E002D37DAA3881BB2002B00DB9F
:1017A000ADE0A379002B00D0EEE00823E05E002836
:1017B00020DB430062691B18DB00D3189E68DD68DC
:1017C000731C00D111E1A44801004144826A0B69F5
:1017D000B71A9B1A9F4215D30123026A03988340CC
:1017E0001A420FD09C4800F029FC8D4202DCCCD17B
:1017F0008642CAD940BF07B0F0BCBB46B246A94634
:10180000A046F0BD0E61EDE762696B0092465B1980
:10181000DB009A4453469E68DF6800F00FFC8F425D
:10182000BADC00D103E1002F00DAE8E0524653466B
:1018300052691B699346049A934200D1D9E05246FB
:101840000821605E52880004594610439847009072
:1018500001910099019A0B001000134300D1CEE0D2
:1018600013000A00B61A9F41002806DB7A4800F0F0
:10187000E5FB009E019F36184F4153469E60DF6096
:1018800000229A5E002A00DA86E753009918606900
:10189000C900411802938B68C9689B46B94200DDB4
:1018A0007AE702D1B34200D976E708239C46A444E4
:1018B000059565462281A446029B2C0006E0530054
:1018C0009918C90041188D68C968AB469B18DB00A0
:1018D000C318B94206DC00D1B3E01C000023E25E6D
:1018E000002AECDA230064469C4653461A8063467D
:1018F000059D1D80A3881BB2002B00DA51E72269E9
:10190000EFF3108172B61368002BFCD0BFF35F8F2A
:101910000123A7885B42A3803FB22369BFF35F8F97
:1019200000221A6081F31088002F00DA39E72300C3
:10193000083322009A4666697B00DB19DB00F31846
:10194000996850468C460824115FDD68002910DB39
:10195000029306E0AB4244D00023E15E2000002960
:1019600006DB4C006418E4003419E368AB42F1DD97
:10197000029B078000201F5E1980002FDCDA140014
:10198000A379002B00D110E70023A37126000823C0
:10199000E15E08364B1C00D12CE70800A2466569C1
:1019A00002E03E004B1C1AD04B005B18DB00EF1826
:1019B0000A008C46E95E7B881BB2002BF1DA01231A
:1019C0005B42DC17BB60FC60824205D0534631802D
:1019D0001B893B8053461A8160464B1CE4D1544618
:1019E000E5E6A3686345B7D9C2E76B1C00D0EAE619
:1019F000F8E65B4658461B69984700281BD15346BA
:101A00001B8822692381EFF3108372B611680029C5
:101A1000FCD0BFF35F8F514662880A8022696580DF
:101A2000BFF35F8F0021116083F31088B4E6864214
:101A300000D8F8E6B0E65B461A685B68009201934E
:101A400007E7B34500D848E74CE7C046E01600205A
:101A50003C7005405D1700100040054070B52E4CED
:101A60002569002D04D00A212C48FFF72FFE70BDF8
:101A70002B4E0321300000F0D7FAE660FFF7BEFDE1
:101A8000284B03229C46D02322701B061B68012191
:101A90006370254B6044A3600F2380002061022007
:101AA000638063694942A1801980023119864731F8
:101AB0001D83585218315A5275325C399952183276
:101AC000013199521832013199521832013199522B
:101AD000083518329D5202311832995218320131AC
:101AE00099521832013199521832013199521832F3
:101AF000013199521832013199520C4B0C49DC607A
:101B000001303562FFF7B8FD01210320FFF7A2FD88
:101B1000084B1D60A7E7C046F00B0020F41700201B
:101B20000040054040000034FFFF1000E016002098
:101B30005D1700103860054000487047F00B00202A
:101B4000F8B51F0008AB1B7804001600002B08D165
:101B500000F07CFA32003B00121A8B41002B00DAB5
:101B600052E02269EFF3108072B61368002BFCD0AC
:101B7000BFF35F8F0223E15E63694A005218D2000F
:101B80009B182269002936DB1D886580BFF35F8FB3
:101B90000025156080F31088069A9E60DF601A6148
:101BA000079A5A615A8801325204520C101C002ABA
:101BB0001FD082B25880080410432669EFF31087C3
:101BC00072B63268002AFCD0BFF35F8FA2881A80F9
:101BD000A1802369BFF35F8F00221A6087F310880A
:101BE0000A4923788C4601329A40E36863441A60BC
:101BF000F8BD0120DDE7BFF35F8F0023136080F3A2
:101C0000108801204042F3E70020F1E73C2000006B
:101C100070B501000469EFF3108C72B620680028DB
:101C2000FCD0BFF35F8F02200D5E4C696800401945
:101C3000C00024180869002D36DB26884E80BFF3CB
:101C40005F8F002606608CF31088E3606388049839
:101C5000013320615B0405985B0CA26060611A1C73
:101C6000002B1FD093B22804628018430A69EFF357
:101C7000108C72B61368002BFCD0BFF35F8F8B887B
:101C800023808D800B69BFF35F8F00221A608CF375
:101C900010880B7801329A40CB6808498C4663441F
:101CA0001A6070BD0122DDE7BFF35F8F0023036080
:101CB0008CF3108801204042F3E7C0463C2000002E
:101CC00010B543890A1493421ADD53009B184269E8
:101CD000DB00D3180469EFF3108C72B62268002A77
:101CE000FCD0BFF35F8F5A88090494B2090C8A4272
:101CF00008D00369BFF35F8F00221A608CF310884D
:101D0000002010BD8022120214435C80012302696E
:101D10008371BFF35F8F002111608CF31088044939
:101D200002788C469340C268012062441360E8E761
:101D30003C200000F0B5C64600B582B004000D009E
:101D400000F084F924184D41002D02DA01242F4DB2
:101D5000644206267642F71736196F41AF4214D80F
:101D600011D000F073F932003B00121A8B41002BA6
:101D700015DC002B46D02000290000F071F902B0DC
:101D800080BCB846F0BDA642EBD90026002700F083
:101D90005DF932003B00121A8B41002BE9DD00F0A7
:101DA00055F932003B00121A8B41002B0ADB00234D
:101DB0000193174B3200009316483B00FFF728FFB2
:101DC0000130D8D000233900B0469C46124A13484F
:101DD000536A994204D8966A4645CCD29942CAD1F0
:101DE0000668EFF3108772B63368002BFCD0BFF3A0
:101DF0005F8F0368BFF35F8F66461E6087F31088AE
:101E000020BFE5E7002AB6D0C9E7C046FFFFFF7F45
:101E10002D170010F00B002000400540F4170020A3
:101E2000F0B5C64600B582B0040000F00FF9FA2202
:101E300006000F00200000230021920000F05EFC4D
:101E40008019794104000D1E02DA01242E4D6442EE
:101E500006267642F71736196F41AF4214D811D0D3
:101E600000F0F4F832003B00121A8B41002B15DC15
:101E7000002B46D02000290000F0F2F802B080BC10
:101E8000B846F0BDA642EBD90026002700F0DEF8E8
:101E900032003B00121A8B41002BE9DD00F0D6F82E
:101EA00032003B00121A8B41002B0ADB0023019306
:101EB000164B3200009316483B00FFF7A9FE013095
:101EC000D8D000233900B0469C46124A1248536AC3
:101ED000994204D8966A4645CCD29942CAD106683E
:101EE000EFF3108772B63368002BFCD0BFF35F8F1F
:101EF0000368BFF35F8F66461E6087F3108820BFBC
:101F0000E5E7002AB6D0C9E7FFFFFF7F2D170010D5
:101F1000F00B002000400540F4170020F0B55746B4
:101F20004E46DE464546E0B506000F0085B0EFF3AD
:101F3000058399468B46002B12D0384900204B6A06
:101F4000BB4206D38A6ADB1B591E8B41B242404119
:101F5000184305B0F0BCBB46B246A946A046F0BD4A
:101F60002F4B9A46DB68984653461B7840460393AE
:101F700000F064F84246039B040004339B009B5826
:101F80000D001B1A39003000001BA941894510DCE7
:101F90000DD020BF214A0020536A5B45D9D3926AF5
:101FA000DB1B591E8B41B24240411843D1E78342AB
:101FB000EFD900F04BF832003B00121A8B41002B96
:101FC0001ADB00230193174B3200009350463B006D
:101FD000FFF71EFE011E0FDD104B5A6A5A451BD338
:101FE0009B6AB34216D35046FFF76AFE0B4A0020A5
:101FF000536A5B45ADD3D2E7084A0020536A5B457C
:10200000A7D30020926ADB1BB24240415A1E934183
:1020100018439EE75A45E6D120BFE4E7004005405B
:10202000F00B00202D17001010B5024A0248FFF7F0
:102030007FFA10BDD43C0010EC1500200300416A6B
:102040000A00986A596A8A42FAD17047034B596A62
:102050000A00986A596A9142FAD1704700400540D7
:10206000064A536A9942FCD807D1044B02E05A6AE7
:10207000914202D19A6A9042F9D8704700400540D7
:10208000F8B5DE464E4657464546E0B58B46050058
:102090000A991800160000F067FA0A9B6C001F02EC
:1020A000324B64199C46A4006444636881469F4295
:1020B00000D967602B1FDBB29846012B30D9C023B3
:1020C00080229B01E31812011A60294BAD00595977
:1020D0009A4600291BD17301E026226853401E4016
:1020E000802342465B01E3181E60012A30D9802319
:1020F00080229B01E31812011A6053464A4667602A
:102100005A51F0BCBB46B246A946A046F8BD586934
:1021100000F02AFA013043001B18033BFDD2DAE736
:102120005B46012BCBD1C02303229B01E3181A602D
:10213000023AA3681A42FCD07301E0262268AD007F
:1021400053401E4080230A4A5B019246E3181E60FA
:102150005A462168514003220A401A6001225B4618
:102160009A40A3681A42FCD0C1E7C04600800040F4
:10217000F4150020F0B546464F46D646C0B51F00C0
:10218000344B44009C462418A40064446368884689
:102190001600FF2B02D880235B006360031FDBB2B5
:1021A0009A46012B30D9C02380229B01E3181201EB
:1021B0001A60294B85005959994600291BD1730192
:1021C000E026226853401E40802352465B01E318FC
:1021D0001E60012A30D9802380229B01E31812015E
:1021E0001A6080235B0063604B465F51E0BCBA46D7
:1021F000B146A846F0BD586900F0B6F90130430079
:102200001B18033BFDD2DAE74346012BCBD1C02399
:1022100003229B01E3181A60023AA3681A42FCD019
:102220007301E0262268850053401E4080230A4A3D
:102230005B019146E3181E6042462168514003222B
:102240000A401A60012342469340A2681342FCD020
:10225000C1E7C04600800040F4150020014B80001B
:10226000C0587047F4150020F8B5040021481E003E
:1022700017000D0000F078F90100380000F074F943
:10228000069B36041B031E432368002B20DB1A4BDE
:102290001A49E3185A1E93418022920194465B42E8
:1022A0001B0B174A1B0363441360164A13601F007D
:1022B0000A689743FBD1144B2560E2182123A060E4
:1022C00013602368002BFCDA0823E6601360F8BD76
:1022D0003F2322681340AB42D9D1A3681B051B0DD5
:1022E0008342D4D1EE22E368D2021340B342CED16E
:1022F000EDE7C046001BB7000040FDBF08C000402E
:1023000000E0004000F00040043000008023024A5A
:102310009B000B43D362704700800540002310B53B
:102320000100988A1B8B984710BDC046162310B534
:102330000100188802331B88984710BDF8B547463E
:10234000CE4680B50F1E18D01423994604330400DE
:102350000025012698464B461888434621681B886D
:10236000984701C4431E984101350640AF42F2D15F
:102370003000C0BCB946B046F8BD0126F8E7C046FB
:10238000AA23064A1B0113608D235B00D360044916
:10239000044B19605368002BFCDA70470040024080
:1023A00000B0FA00006002407047C04610B5014816
:1023B000FFF790F8F83C001070B5074D074EB54296
:1023C00009D20024013E761BB60808CD98472300A9
:1023D0000134B342F9D170BD283C0010643C0010B8
:1023E000054B064A06491A60064A074B1A60100058
:1023F0000B689843FBD1704700E00040BFCDFBFE67
:1024000008C00040FE7F3C0000F00040044BDB6C45
:10241000002B03D18022034BD2021A607047C046C2
:10242000000011504C201150044A054B1A60054A17
:102430001368DB018033FBD17047C046FFFFFF010B
:1024400000F0004008C000404022034B9A675A67E2
:102450001A67DA667047C04600F0014010B5FFF712
:10246000D9F810BD70B5044D044CA968C0222000F5
:1024700000F078FAAC6070BD00ED00E000000020D4
:10248000002310B5294C82B0A367FFF779FF012222
:10249000274B1A60636C012BFCD10322254B1A6079
:1024A000224A936B012BFCD1013300930121224A74
:1024B00022480433FFF7D8FE052301210093204A68
:1024C0002048FFF7D1FE0022022104201E4BFFF717
:1024D00051FE0022012105201C4BFFF74BFE00227C
:1024E000002107201A4BFFF745FE0022002108209B
:1024F000174BFFF73FFE8023DB00009300220021F3
:102500000920134BFFF7BCFD0022104B00210620D1
:10251000FFF730FE0420FFF7A1FE0E4900F024F87B
:1025200001000020FFF7F2FE02B010BD0080004065
:102530003CB0004030B00040002F6859008002409D
:10254000008C864700C00240001BB700405973074B
:10255000006CDC0240420F0001480421014B184787
:10256000100C00203D230010114A936F9B0813D2DA
:1025700010665166002905D0FFE7FFE7FFE7516FBE
:10258000106F704704B5002801D00020C04301F04F
:102590003BFB002104BDC046F0B5146E556E576F6D
:1025A000166FFFF7E5FF1466556657671667F0BDAF
:1025B000000000D048404140484018B4134B5B68CD
:1025C000019308BD18B4114B1B68019308BD9446D4
:1025D0000F4A926F920805D2624618B40B4BDB6823
:1025E000019308BD0A4AF0B5146E556E576F166F09
:1025F0006246FFF7F2FF064A14665566576716678C
:10260000F0BD18B4014B9B68019308BD7013002006
:10261000000000D018B4024BDB6F019308BD00002E
:102620007013002010B50148FEF754FF043D001060
:10263000132370B51D78012D19D014DD1D48FFF747
:1026400075FE06001C48FFF771FE1C4C802231000D
:10265000200000F087F9022D06D01948FFF75EFE32
:10266000184B186070BD154C174BA364F5E7174B5A
:10267000124C23606360A360E36023616361A36124
:10268000E36123626362A362E36223636363A36320
:10269000E36323646364A364E36423656365A36500
:1026A000E36523666366A366E36623676367A367E0
:1026B000E367D9E75344000053460000701300203D
:1026C0004C330000F0160020D12600102526001003
:1026D00007B5604601880A0A0230DF2AFAD1C9B27A
:1026E000820804D3028840880004104300E0006898
:1026F000014A5050039007BD7013002051434343DB
:10270000C9188C46110C83B24B4310B4040C6143BE
:1027100092B280B2504362431C041B0C001910BCDF
:1027200059411304120CC018514161447047000014
:102730004840414048400E4B5B6818470C4B1B68B3
:1027400018470C4A936F9B0802D2094BDB68184765
:10275000F0B5146E556E576F166FFFF7F6FF054A0A
:102760001466556657671667F0BD014B9B6818479E
:10277000F4160020000000D007B548404140484012
:1027800001E0C04607B54200120E03D0FF2A03D174
:10279000420218D8C00DC0054A00120E03D0FF2A0D
:1027A00003D14A020FD8C90DC9050122414005D401
:1027B000414001D5814207BD884207BD0143491808
:1027C00001D0C043001807BD00B5FFF7DBFF01D003
:1027D000002000BD012000BD00B5FFF7D3FF01D9E7
:1027E000002000BD012000BD00B5FFF7C5FF8041FE
:1027F00000BD491A002807D108467047C10FC90714
:1028000000D54042002817D0F44603B40B4B1B6898
:10281000984706BC81409E384042803107D20B0663
:1028200007D04900490AC0051043084360470130FA
:10283000F8E7490A8902F5E770470000F016002022
:1028400041000A0E80231B067E2A0BDD9E3A0BDA1E
:10285000C1174002400818435242D040490001319C
:102860004843704700207047C00FC01801387047B8
:10287000C0420DD300B540004008002100F00EF822
:10288000002801D4404200BD8020000600BD0000A9
:10289000014BDB6918470000F4160020014B5B6A0E
:1028A00018470000F4160020014BDB6F18470000AA
:1028B000F416002010B50148FEF70CFE903C001005
:1028C000132310B510481C78FFF730FD0100012CD0
:1028D0000AD003DD80220D4800F044F80C48FFF7D1
:1028E0001DFD0C4B186010BD084C5422200000F058
:1028F00039F82200084980322368002B00D121607A
:1029000004349442F8D1E9E753460000F41600205D
:102910004C330000F0160020B528001010B504005C
:1029200000F02EFC002804D0034B04199C4200D870
:1029300010BD0248FEF7CEFD000004201C3D001033
:1029400010B500F027FC10BD01480421014B1847C9
:10295000200C00203D230010014B1B68184700008D
:10296000200C0020014B5B6818470000200C002061
:1029700010B5002800D110BD00F030F9FBE7C046CB
:1029800010B5094A0300146884B0002C08D0012255
:1029900000910648524203A9A047012004B010BD8F
:1029A00000F066F90020F9E73C16002071290010BC
:1029B00000BEFDE7094A03001068002805D0084959
:1029C000C3188B4207D81360704706480449C318E0
:1029D00010608B42F7D901204042F5E73416002001
:1029E000000004200018002010B5FFF7E1FFC046EA
:1029F00070B5FFF7E1FC074D074EB54209D2002440
:102A0000013E761BB60808CD984723000134B34237
:102A1000F9D170BD643C0010683C0010030010B593
:102A2000080011001B68984710BDC046F0B5C646A7
:102A300000B5437D07000C001600002B46D0002A8D
:102A400017DD0B780A2B24D000239846012E13D0D3
:102A500001252900635C01350A2B26D0B542F8D147
:102A6000464509DCA419013C23780D3B5A425341E9
:102A70003B7580BCB846F0BD4346E018A419F11A76
:102A8000013C3B68984723780D3B5A4253413B75C4
:102A9000EFE7037D002BD7D102210F483B68984711
:102AA000012EDFD001239846D2E7631E5B5C0D2B1D
:102AB000D4D0884504DA4346C91AE0183B689847E1
:102AC000022105483B68A8469847C7E703681100FC
:102AD00020009847CDE7C0464C400010F0B5454671
:102AE000DE464E465746E0B583B091461C00804610
:102AF0000D00FFF7ABFA0023304A12184B41002BB0
:102B000002DA01222E4B52422E4908008A4601F079
:102B100083F807006B1C03D1404600F0EBFE050074
:102B2000002C27D0284E294B1C68002C18D04B466F
:102B3000002B21D1264B994602E02469002C0FD0AE
:102B40002368002BF9D04B461B68002B01D09C4218
:102B5000F3D120002A004146B0472469002CEFD170
:102B6000002F26D1280003B0F0BCBB46B246A946D0
:102B7000A046F0BD174ED6E7154B99460A239B4653
:102B800002E02469002CEBD02368002BF9D04B46DF
:102B90001B68002B01D0A342F3D12A00414620003C
:102BA000B0476B465A462000DA71D91D0122B04762
:102BB000E7E7504601F020F8D4E7C04640420F0056
:102BC000FFFFFF7F981100202D2A001028160020FB
:102BD000301600201D2A001000207047F0B5CE46A8
:102BE000474680B583B06B460600DD1D2870FFF7B1
:102BF0002DFA0023194A12184B41002B02DA012248
:102C0000174B524217490800884601F005F8164B49
:102C100081461C68002C14D0144F02E02469002C5B
:102C20000FD02368002BF9D03B68002B01D09C42C9
:102C3000F4D1200001222900FFF7F8FE2469002CBE
:102C4000EFD14B46002B05D1300003B0C0BCB946D4
:102C5000B046F0BD404600F0CFFFF5E740420F0020
:102C6000FFFFFF7F9811002028160020301600205B
:102C700070B5040000F03EFE0123010005000122B2
:102C80002000FFF72BFF084B1C68002C06D0636860
:102C9000002B05D098472469002CF8D1280070BD7E
:102CA0002469002CF3D1F9E72816002010B50A4B4F
:102CB0000A4AC418240DA40082B0009208482200D9
:102CC000E31CFEF757FC844202DC001B02B010BD7F
:102CD00001204042FAE7C0460000E0AF6C3D001022
:102CE000F0150020F0B557464546DE464E4688466C
:102CF000E0B583B006000525FEF704FC4346844694
:102D00005D571879334B344AF3181B0D9B009246DC
:102D1000D758012220248240241A013A002D41DB99
:102D2000A54232DC1100A9400F422ED1414609686C
:102D3000894641468979002945D12C00AA4093460D
:102D400059463A40394241D18021890188460028BC
:102D500016D06146A44634004E46994603000191C0
:102D60005100705A404500D24019A918123189000B
:102D7000013208519A42F3D3019B64469C464B466C
:102D80005A4617435246D75001E001246442604638
:102D9000FEF7C4FB200003B0F0BCBB46B246A94618
:102DA000A046F0BD002C02DA10E0013C0ED3110069
:102DB000A14025000F42F8D14146096889464146A5
:102DC00089790029BAD014246442E0E709246442D6
:102DD000DDE7C0460000E0AFE0150020F0B54E464C
:102DE0004546DE465746E0B583B089460CA9844681
:102DF0000D781F2A45D84946490088464944C900EC
:102E0000461837003400DC373868CC3483462068F5
:102E1000310001901C4880248246A40251440C6079
:102E200069424D411E216D428D4318498A465544E1
:102E3000052B0CD9A0201F214005D836540104438E
:102E40000532053B3C600A403560052BF6D852013F
:102E50009B06134342464A44D20062441000DC32CF
:102E600013600300D8331D605B461360019BCC30B8
:102E70000360002003B0F0BCBB46B246A946A046A2
:102E8000F0BD05204042F5E7CC3000009FE0000097
:102E9000F0B501258D400468AC430460002B2ED0B2
:102EA0004D006C18E400041926001F68C83637600E
:102EB0009F68043677605F68DB68DC3437602360C6
:102EC0006B18184DDB00AC468025C41864442D06F1
:102ED00025602560144C0D1D8C4084600124260063
:102EE000AE40802508318C401F21AD014519C01826
:102EF0000A40D8302E602C6002600020F0BD4D00EA
:102F00006C18E400041926008027C8367F02376059
:102F1000C0273F03B760F82704367F02DC343760F0
:102F20002360CDE7D0100000010101010123012140
:102F3000084A1360084A1360084A08001368984357
:102F4000FBD1074A11608021490013680B42FCD075
:102F50007047C04600E0004000F0004008C000405C
:102F600000C00440F0B5DE4657464E464546904602
:102F70000022E0B585B01E000EAB1B7807009B4613
:102F80000368DA6601325960DA66002E60DD027984
:102F900059469202924601224A40520294468022A9
:102FA00091465A46802403926246BB460020102177
:102FB0004746B446751EA4000192421B1600724299
:102FC0007241019E5242164002963E5CB046564601
:102FD000424616433200029E16431E61019E5A6B02
:102FE0001142FCD04A469A5801969246002A0AD1CC
:102FF000A84228D00022013092468445DDD1039BAF
:103000005F469B4616E05A6D012290465A6B22425B
:10301000FCD01A6E42460196002AEBD0039B5F4615
:103020009B465346002B15D05346DB0712D453461C
:103030001B070FD55B463B7105B0F0BCBB46B246E3
:10304000A946A046F0BD039A002AD3D19046DDE7F9
:103050000020EFE701204042ECE7C046F8B5DE462D
:1030600057464E4645468346E0B505200C00FFF71F
:10307000F5F80600600821008019FFF775FA430093
:1030800098468044070005214046FFF76DFA3B1A39
:103090009A461E4B8146700080199C4231D81C49CB
:1030A000FFF762FA451C5B461C680023E366226852
:1030B00004335A400233134080225201A218136095
:1030C0005346E3614B462362434601204F2B03D90D
:1030D00050214046FFF748FAA023E050E36F390043
:1030E0005D400C4B2D042D0CE3181D6001233000B6
:1030F000E366FFF739FAF0BCBB46B246A946A046E4
:10310000F8BD0549FFF730FA451CCCE73F420F00F8
:10311000809698007C10000040787D010F4A70B5C1
:10312000821A531E9A410E4BD20008321A600D4B80
:103130000D4C1A60150023689D432B1EFAD166249E
:103140000268FF340571D5661460633C8833FF3C28
:10315000D5639563D450FFF781FF70BD380C002014
:1031600000E0004000F0004008C0004010B582B010
:103170006C46247C0094FFF7F5FE02B010BDC046FB
:1031800010B5034B0100186800F00EF810BDC046E2
:103190005010002010B5034B0100186800F032FCFD
:1031A00010BDC04650100020F0B54E464546DE46E4
:1031B0005746E0B50D000B35060085B0162D21D819
:1031C000102900D9D4E000F0D5FA102518230221E7
:1031D000CA4FFB181A005C68083A944200D186E195
:1031E00003226368A1689343E268CA609160012189
:1031F000E3185A6830000A435A6000F0C3FA20000E
:103200000830B8E007239D4300D5B1E0A94200D9BA
:10321000AEE000F0AFFAFC235B009D4200D2E0E19B
:10322000690A00D1AEE0042900D9A1E1382398460B
:10323000A90988443931CB00082252429446AF4F45
:10324000FB189C446346DC68A44514D003239946CC
:103250000B0061469C4607E0E068002A00DB40E185
:10326000814200D141E104004A46636893435A1BFE
:103270000F2AF1DD41463A003C690832944200D100
:103280001EE1032063688343581B0F2800DDACE177
:103290003A617A610028AADA7A6890468022920020
:1032A000934200D336E1DA085809012383404046AF
:1032B00018438046D300DB199A687860E360A26007
:1032C0009C60D46001208B109840404562D84346F2
:1032D00003420AD103239943434640000431034289
:1032E00003D1400004310342FBD00323B3469C4684
:1032F0000E00B8460190F00040440100B246CB6891
:103300000BE064465A681F00A243DB68541B0F2C75
:1033100000DD39E1002C00DB53E19942F1D10123BA
:103320009946CA44534608319B07E8D1032205E079
:1033300003680838013E834200D013E23242F7D1DD
:103340004346019A5B68934342465360019A520098
:1033500001929A421CD8002A06D119E00422914613
:10336000019ACA44520001921342F7D05646C2E76E
:103370000C233360002005B0F0BCBB46B246A94622
:10338000A046F0BD80233F22402190469B0053E79A
:103390005E4647460322BC68636893439846AB4247
:1033A00003D35B1B0F2B00DD8DE02300434402930E
:1033B000534B08201B6810335B19019300F048FA47
:1033C000504903900B688A46013306D08446019B1E
:1033D0004242013B6344134001933000019900F0E5
:1033E0001BFA03008146013300D11CE1029B83429A
:1033F00000D916E1444B02989B461A68019B594636
:103400009C4662440A6003990139484500D157E15E
:1034100053461B68013300D15EE14B4602981B1AEC
:103420009B185A46136007234A4648461A400292A0
:10343000184200D115E10398013384469B1A019A82
:1034400099444A44019263440A409B1A194030004F
:103450008A4600F0E1F9431C00D158E14B46C01AFE
:103460000300534401935B461A68012052441A60DA
:103470004B464946BB60019B03434B60BC4213D0A3
:1034800043460F2B00D82BE107210C3B8B4361688F
:103490000140052019436160E118486088600F2BE6
:1034A00000D93FE14B465B6818490868904200D25A
:1034B0000A6017490868904200D20A604C46B4E09E
:1034C0007B689846FEE601222900134311436519E3
:1034D00061603000BD606B6000F054F9200008307E
:1034E00049E7A268D060826081E66146C3E6DC6895
:1034F0000231A34200D1BEE672E6C046480C00206D
:10350000A4140020400C0020741400209C140020FF
:10351000A01400205A0A042A7CD9142A00D9B0E049
:1035200010005B3082465C32D20008204042844664
:10353000BA189444624692680B308146944500D193
:1035400086E00800A2466146844602E09268914205
:1035500004D04C465068A0439842F7D8D3686146DF
:1035600054469C466346A260E3609C60D460A9E632
:10357000142967D9542900D98CE06E239846290B69
:1035800088446F31CB0057E6BA4601205146844645
:103590004919054350464560856847466046EB60DB
:1035A0005E469D6053463961796120430837486023
:1035B000CF6030008F609C5000F0E4F85046083037
:1035C000D9E6BA4601205E46524451680143516033
:1035D000BA683000D3609A6000F0D4F83800083040
:1035E000C9E62B00E9080833F2E561198846012194
:1035F0008C460D434146656039617961CA608A60D5
:10360000624602434A60E050300000F0BBF8200000
:103610000830B0E69A091000393238308246D200BC
:1036200083E7BC4241D0BC686368032293431A001D
:103630005B1BAA4202D30F2B00DD44E7300000F0F1
:10364000A1F897E65B23984688445C31CB00F3E50C
:1036500053469810012383404046184380467860C3
:1036600080E7019B039A4B440B40D31A194030006A
:103670008A4600F0D1F8431C00D0EFE600239A46BA
:10368000F1E6542A2ED81A0B10006F326E308246A3
:10369000D2004AE7AA235B0099422ED8DD3B984628
:1036A000E90B88447831CB00C6E5304B9B461A685D
:1036B000019B9C465B4662441A60039B591EA7E629
:1036C0004846084200D0A3E6B96843448946012130
:1036D0000B4349464B60E7E653464A461A60A2E66A
:1036E0004860ABE7AA204000824226D8DA0B1000DF
:1036F000783277308246D20017E71D4B994226D8A0
:103700007C239846A90C88447D31CB0094E5019A2E
:10371000029B94464A46083B63449B1A019300234C
:103720009A46A0E621003000083100F06BF95B46B4
:103730001A68BB6899465B68B6E60D4882420CD8A9
:103740009A0C10007D327C308246D200EDE6FE23DA
:103750007E227F2190469B006EE5FE227E20920015
:103760008246E2E643465B68F0E5C04674140020FA
:103770005405000010B5024800F066F810BDC046C0
:103780007014002010B5024800F060F810BDC0466B
:103790007014002010B5034B0100186800F004F805
:1037A00010BDC0465010002070B5040008000D0088
:1037B00000F0A0F8461C31002000FFF7F5FC041EC5
:1037C00003D032002900FFF7CDF8200070BDC046BD
:1037D0000A000243030030B5920710D10A680C4C6E
:1037E00015190C4C9543254209D104310260084B50
:1037F0000A680430D31893432342F6D003000A78B2
:1038000018001A7001310133002AF8D130BDC046CA
:10381000FFFEFEFE80808080002370B5064C050010
:1038200008002360FFF7C6F8431C00D070BD236872
:10383000002BFBD02B60F9E72C160020014B1868F9
:103840007047C046501000207047C0467047C046C1
:10385000802310B55B01082801D1180010BDFFF7C7
:10386000EDFF16230360173BF7E7C046024670B52D
:103870000A4392072AD11E4DEE0104C808C9541B01
:103880009443344017D0D0B2D9B2401A2106014334
:1038900010D190B299B2401A210401430AD110020A
:1038A0001902000A090A401A2102014302D1100E2E
:1038B000190E401A70BD9A42DFD010BA19BA884268
:1038C00001D9012070BD0020C04370BD02780B7883
:1038D00001300131002A09D09A4207D102780B78D1
:1038E00001300131002A01D09A42EFD0D01A70BDC8
:1038F0000101010110B583070AD00300032102E092
:1039000001330B4205D01A78002AF9D1181A10BDDC
:10391000030019680C4A0D4C8A188A4322420FD1C1
:103920005968094A04338A188A43224208D15968DF
:10393000054A04338A188A432242F1D000E0013359
:103940001A78002AFBD1E1E7FFFEFEFE808080802E
:10395000F0B5C646060000B508200D00FFF778FF59
:1039600004003000FFF706FF234B210098469B68B8
:103970005F6803239F4338001138401B0019FEF78E
:10398000F3FD451E6543AC4208DC00213000FFF723
:1039900043FF43469B68DB19984206D03000FFF78F
:1039A000F1FE002080BCB846F0BD30006942FFF750
:1039B00033FF01300ED0012243467F1B9B68174323
:1039C0000E4A5F60136830005B1B1360FFF7DAFE7E
:1039D0000120E7E700213000FFF71EFF43469A6809
:1039E000831A0F2BDADD064C04492468001B08609B
:1039F00001210B435360D1E7480C002074140020D0
:103A0000400C0020F0B5D6464F46464605000C0057
:103A1000C0B5002948D0FFF7ADFE210001270839C5
:103A20004B6803209C46BB43CE18726882436046B5
:103A3000384080466A4891468468B44200D17CE0B0
:103A40007260B41864683C40A2464446002C30D1F1
:103A50000C68A446091B8C686344A4460824A0464D
:103A60008044C4455CD0CC68A04664464246E260CF
:103A700094605246002A1FD01F434F60336080225B
:103A80009200934230D2DA085C090123A3404468D3
:103A900023434360D3001B189A68CB608A60996007
:103AA000D1602800FFF76EFEE0BCBA46B146A846DA
:103AB000F0BD5246002A0FD101224B44CF18BC461C
:103AC000B468484F1A43BC425BD0F668E660B46005
:103AD0004A6062461360D2E762463A434A608022F7
:103AE000336092009342CED35C0A042C3FD89C09E9
:103AF000260039343836E40004192268083C0327CC
:103B0000944203D14EE09268944203D05068B84387
:103B10009842F8D8D468CC608A60A160D160C0E7D0
:103B20005246002A35D14B441A00B068F368174357
:103B3000C36098604F608A50B3E74B441A00434615
:103B4000002B06D10B68C91A8C68D218CB68E360C9
:103B50009C60012313434B60234B81601B6893429D
:103B60009FD8224B28001968FFF7F2FE99E7142C22
:103B700013D9542C1DD81C0B26006F346E36E4006C
:103B8000BAE7E160A1604A606246CC608C60136075
:103B900087E71F434F60336083E726005C345B3662
:103BA000E400A9E70123B610B340466833434360FD
:103BB000B1E7AA225200944205D8DC0B26007834E3
:103BC0007736E40098E70A4A944205D89C0C260010
:103BD0007D347C36E4008FE7FE247E26A4008BE74C
:103BE000480C0020500C0020440C0020A41400209D
:103BF00054050000F8B5C04601B40248844601BC33
:103C0000604700BF5901002001B40248844601BC4E
:103C1000604700BF8101002001B40248844601BC16
:103C2000604700BFC1000020E12300100D240010F8
:103C3000592500104929001031260010C128001014
:103C40008124001029240010492400105D24001054
:103C5000DD160010652400105D1A0010A923001065
:083C600031160010B102001042
:103C6800230000002D0000002B0000002020414C04
:103C7800536F6E6773202020000000002020202052
:103C88002020202020202020000000002020627911
:103C9800204C756374656368202020004100000093
:103CA80042000000430000004400000045000000FE
:103CB80046000000470000000A2A2A2A2050414EE8
:103CC8004943202A2A2A0A000A000000486172642F
:103CD8007761726520616C61726D20256420616C6A
:103CE800726561647920636C61696D6564000000C8
:103CF8004861726420617373657274006D697373CF
:103D0800696E6720646F75626C652066756E637492
:103D1800696F6E004F7574206F66206D656D6F72E8
:103D28007900000052656C6561736500626F6F749D
:103D3800325F77323571303830000000302E310074
:103D4800322E312E310000007069636F5F770000FA
:103D5800414C536F6E6773004665622032322032E1
:103D6800303235004E6F2050494F207374617465AE
:103D7800206D616368696E65732061726520617684
:103D880061696C61626C6500983D001004FF000079
:103D980021622311001442A4743C0010843C0010DA
:103DA800943C0010EC130010A8130010A813001086
:103DB800A8130010A8130010A8130010A8130010CF
:103DC800A8130010D4130010A8130010BC1300107F
:103DD800A8130010A8130010A4130010A4130010B7
:103DE800A4130010A4130010A4130010A4130010AF
:103DF800A4130010A4130010A4130010A41300109F
:103E0800A8130010A8130010A8130010A81300107E
:103E1800A8130010A8130010A81300104A130010CC
:103E28004A1300104A1300104A1300104A130010D6
:103E38004A1300104A1300104A1300104A130010C6
:103E48004A1300104A1300104A1300104A130010B6
:103E58004A1300104A1300104A1300104A130010A6
:103E68004A1300104A1300104A1300104A13001096
:103E78004A1300104A1300104A1300104A13001086
:103E88004A130010000000000000000000000000BD
:103E980078141211121478007F49494949497F0062
:103EA8007E414141414141007F41414141417E00C4
:103EB8007F494949494949007F0909090901010020
:103EC8007F414141515173007F08080808087F006D
:103ED8000000007F000000002141413F0101010076
:103EE800007F0808142241007F40404040404000C5
:103EF8007F02040804027F007F02040810207F006C
:103F08003E41414141413E007F11111111110E0006
:103F18003E41414951617E007F11111131510E001E
:103F280046494949493000000101017F010101006A
:103F38003F40404040403F000F10204020100F00FD
:103F48007F20100810207F00004122141422410015
:103F5800010204780402010041615945434100000F
:103F68003E41414941413E000000427F400000007F
:103F780030494949494600004949494949493600B3
:103F88003F202078202000004F494949493000004F
:103F98003F4848484848300001010161310D03009D
:103FA80036494949494936000609090909097F007E
:103FB80014147F14147F14000808087F08080800E8
:103FC8000000007F00000000AE200040A1A83FC80C
:103FD800D300DA12D580D9F1DB3081FFA4A68D1485
:103FE8002EAF000006005250D3F075422C3D001051
:103FF80006005250E182887F343D0010060052507E
:104008003ABCA911443D001006005250ABB36053AE
:10401800483D001006005250BBFF3CB6503D001012
:1040280006005250861C0302583D001006005250EC
:104038005422A29D603D001005005250DE65F468D0
:10404800545200100D0A00000020202020202020BB
:104058002020282828282820202020202020202030
:104068002020202020202020208810101010101040
:10407800101010101010101010040404040404048C
:104088000404041010101010101041414141414126
:104098000101010101010101010101010101010108
:1040A8000101010110101010101042424242424218
:1040B80002020202020202020202020202020202D8
:1040C8000202020210101010200000000000000080
:1040D80000000000000000000000000000000000D8
:1040E80000000000000000000000000000000000C8
:1040F80000000000000000000000000000000000B8
:1041080000000000000000000000000000000000A7
:104118000000000000000000000000000000000097
:104128000000000000000000000000000000000087
:104138000000000000000000000000000000000077
:0C4148000000000000000000000000006B
:10415400EC3F0010F83F0010044000101040001025
:104164001C40001028400010344000104040001053
:10417400F0B5C646150000B504001E000268EFF352
:10418400108172B61368002BFCD0BFF35F8F042339
:10419400E3562268002B2BDBBFF35F8F00201060F7
:1041A40081F31088D02212061278002752B290466A
:1041B4009A420ED1002080BCB846F0BDBFF35F8F99
:1041C400176081F310882800310000F035F80028CA
:1041D400F0D12268EFF3108172B61368002BFCD083
:1041E400BFF35F8F237922687F2BE7D9434602E030
:1041F400D0231B061B682371BFF35F8F002313605A
:1042040081F310880120D6E70268EFF3108172B6BB
:104214001368002BFCD0BFF35F8FFF230371036887
:10422400BFF35F8F00221A6081F3108840BF70478C
:104234007047C0460000000001B40248844601BC37
:10424400604700BF1D1F0010F401000001000000C2
:10425400A43C0010A83C0010AC3C0010B03C001082
:10426400B43C0010B83C0010BC3C0010412D0000D0
:104274008323000041232D008521000042622D008C
:1042840085210000422D0000A31F0000432D0000E3
:10429400DD1D000043232D002F1C000044622D006F
:1042A4002F1C0000442D00009A1A000044232D0006
:1042B4001C19000045622D001C190000452D00004A
:1042C400B3170000462D00005F16000046232D00A2
:1042D4001D15000047622D001D150000472D00002C
:1042E400EE13000047232D00D012000041620000AD
:1042F400D012000041000000C11100004123000061
:10430400C210000042620000C2100000420000001F
:10431400D20F000043000000EE0E00004323000013
:10432400180E000044620000180E00004400000053
:104334004D0D0000442300008E0C00004562000077
:104344008E0C000045000000DA0B0000460000005F
:104354002F0B0000462300008F0A00004762000074
:104364008F0A000047000000F709000047230000FF
:104374006809000041622B0068090000412B00001D
:10438400E108000041232B006108000042622B0079
:1043940061080000422B0000E9070000432B0000E5
:1043A4007707000043232B000C07000044622B0016
:1043B4000C070000442B0000A706000044232B0038
:1043C4004706000045622B0047060000452B00000D
:1043D400ED050000462B00009805000046232B0045
:1043E4004705000047622B0047050000472B0000EB
:1043F400FC04000047232B00B404000041622B009E
:10440400B4040000412B00007004000041232B0081
:104414003104000042622B0031040000422B0000F2
:10442400F4030000007F0007000000000400000007
:1044340002000000070000000C0000001100000052
:104444000000000000000000000000000000000068
:104454000000000000000000000000000000000058
:10446400000000000000000006000000030000003F
:10447400060000000C0000000D0000001000000009
:104484001600000000000000000000000000000012
:104494000000000000000000000000000000000018
:1044A400000000000A0000000200000004000000F8
:1044B40005000000070000000C0000000D000000D3
:1044C4000E0000000F0000001100000017000000A3
:1044D40000000000000000000000000000000000D8
:1044E4000600000003000000060000000D000000AC
:1044F4000E00000010000000180000000000000082
:1045040000000000000000000000000000000000A7
:104514000000000000000000000000000400000093
:1045240004000000050000000E0000000F00000061
:104534000000000000000000000000000000000077
:104544000000000000000000000000000000000067
:104554000000000000000000050000000200000050
:10456400070000000C00000011000000160000000D
:104574000000000000000000000000000000000037
:104584000000000000000000000000000000000027
:10459400000000000800000002000000030000000A
:1045A400060000000C0000000D00000010000000D8
:1045B40016000000170000000000000000000000CA
:1045C40000000000000000000000000000000000E7
:1045D4000A000000030000000400000005000000C1
:1045E400070000000D0000000E0000000F00000096
:1045F4001100000017000000180000000000000077
:1046040000000000000000000000000005000000A1
:1046140004000000060000000E000000100000006E
:10462400180000000000000000000000000000006E
:104634000000000000000000000000000000000076
:10464400000000000000000002000000050000005F
:104654000F00000000000000000000000000000047
:104664000000000000000000000000000000000046
:104674000000000000000000000000000000000036
:104684000000000003000000070000000C00000010
:104694001100000000000000000000000000000005
:1046A4000000000000000000000000000000000006
:1046B40000000000000000000000000000000000F6
:1046C4000500000002000000060000000D000000CC
:1046D40010000000160000000000000000000000B0
:1046E40000000000000000000000000000000000C6
:1046F40000000000000000000000000007000000AF
:104704000200000003000000050000000E0000008D
:104714000F00000016000000170000000000000059
:104724000000000000000000000000000000000085
:10473400000000000000000004000000030000006E
:104744000400000017000000180000000000000032
:104754000000000000000000000000000000000055
:104764000000000000000000000000000000000045
:104774000000000002000000040000001800000017
:104784000000000000000000000000000000000025
:104794000000000000000000000000000000000015
:1047A4000000000000000000000000000000000005
:1047B4000500000002000000070000000C000000DB
:1047C40011000000160000000000000000000000BE
:1047D40000000000000000000000000000000000D5
:1047E40000000000000000000000000007000000BE
:1047F4000200000003000000060000000D0000009D
:104804001000000016000000170000000000000067
:104814000000000000000000000000000000000094
:1048240000000000000000000A0000000300000077
:104834000400000005000000070000000C00000058
:104844000E0000000F00000011000000170000001F
:10485400180000000000000000000000000000003C
:104864000000000005000000030000000600000036
:104874000D000000100000001800000000000000FF
:104884000000000000000000000000000000000024
:104894000000000000000000000000000000000014
:1048A40003000000050000000E0000000F000000DF
:1048B40000000000000000000000000000000000F4
:1048C40000000000000000000000000000000000E4
:1048D40000000000000000000000000005000000CF
:1048E40002000000070000000C000000110000009E
:1048F400160000000000000000000000000000009E
:1049040000000000000000000000000000000000A3
:104914000000000000000000080000000200000089
:1049240003000000060000000C0000000D00000061
:104934001000000016000000170000000000000036
:104944000000000000000000000000000000000063
:10495400000000000A000000020000000300000044
:1049640004000000050000000D0000000E0000001F
:104974000F000000160000001700000018000000DF
:104984000000000000000000000000000000000023
:104994000500000003000000040000000E000000F9
:1049A40017000000180000000000000000000000D4
:1049B40000000000000000000000000000000000F3
:1049C40000000000000000000000000002000000E1
:1049D40004000000180000000000000000000000B7
:1049E40000000000000000000000000000000000C3
:1049F40000000000000000000000000000000000B3
:104A0400000000000000000005000000020000009B
:104A1400070000000C000000110000001600000058
:104A24000000000000000000000000000000000082
:104A34000000000000000000000000000000000072
:104A44000000000007000000030000000600000052
:104A54000C0000000D000000100000001600000013
:104A6400170000000000000000000000000000002B
:104A74000000000000000000000000000000000032
:104A84000800000004000000050000000D00000004
:104A94000E0000000F0000001600000017000000C8
:104AA40018000000000000000000000000000000EA
:104AB40000000000000000000000000003000000EF
:104AC4000E000000170000001800000000000000A5
:104AD40000000000000000000000000000000000D2
:104AE40000000000000000000000000000000000C2
:104AF4000000000000000000010000001800000099
:104B040000000000000000000000000000000000A1
:104B14000000000000000000000000000000000091
:104B24000000000000000000000000000000000081
:104B34000000000003000000070000000C0000005B
:104B44001100000000000000000000000000000050
:104B54000000000000000000000000000000000051
:104B64000000000000000000000000000000000041
:104B74000600000002000000060000000C00000017
:104B84000D000000100000001600000000000000EE
:104B94000000000000000000000000000000000011
:104BA4000000000000000000000000000A000000F7
:104BB40002000000030000000500000007000000E0
:104BC4000C0000000D0000000E0000000F000000AB
:104BD40016000000170000000000000000000000A4
:104BE40000000000000000000700000003000000B7
:104BF40004000000060000000D0000000E0000008C
:104C04001700000018000000000000000000000071
:104C14000000000000000000000000000000000090
:104C24000000000004000000040000000500000073
:104C34000E0000001800000000000000000000004A
:104C44000000000000000000000000000000000060
:104C54000000000000000000000000000000000050
:104C64000200000003000000040000000500000032
:104C740006000000070000000C0000000D0000000A
:104C84000E0000000F0000001000000011000000E2
:104C940016000000170000001800000010000000BB
:104CA4000000000000000000000000000000000000
:104CB40000000000A011002000000000000000001F
:104CC400503300004C3300005433000052330000D2
:104CD4004D5300004D4300005334000043340000A2
:104CE4000080044000000000004004400000000078
:104CF400FFFFFFFF000002000000000000000000B2
:104D0400480C0020480C0020500C0020500C0020BF
:104D1400580C0020580C0020600C0020600C00206F
:104D2400680C0020680C0020700C0020700C00201F
:104D3400780C0020780C0020800C0020800C0020CF
:104D4400880C0020880C0020900C0020900C00207F
:104D5400980C0020980C0020A00C0020A00C00202F
:104D6400A80C0020A80C0020B00C0020B00C0020DF
:104D7400B80C0020B80C0020C00C0020C00C00208F
:104D8400C80C0020C80C0020D00C0020D00C00203F
:104D9400D80C0020D80C0020E00C0020E00C0020EF
:104DA400E80C0020E80C0020F00C0020F00C00209F
:104DB400F80C0020F80C0020000D0020000D00204D
:104DC400080D0020080D0020100D0020100D0020FB
:104DD400180D0020180D0020200D0020200D0020AB
:104DE400280D0020280D0020300D0020300D00205B
:104DF400380D0020380D0020400D0020400D00200B
:104E0400480D0020480D0020500D0020500D0020BA
:104E1400580D0020580D0020600D0020600D00206A
:104E2400680D0020680D0020700D0020700D00201A
:104E3400780D0020780D0020800D0020800D0020CA
:104E4400880D0020880D0020900D0020900D00207A
:104E5400980D0020980D0020A00D0020A00D00202A
:104E6400A80D0020A80D0020B00D0020B00D0020DA
:104E7400B80D0020B80D0020C00D0020C00D00208A
:104E8400C80D0020C80D0020D00D0020D00D00203A
:104E9400D80D0020D80D0020E00D0020E00D0020EA
:104EA400E80D0020E80D0020F00D0020F00D00209A
:104EB400F80D0020F80D0020000E0020000E002048
:104EC400080E0020080E0020100E0020100E0020F6
:104ED400180E0020180E0020200E0020200E0020A6
:104EE400280E0020280E0020300E0020300E002056
:104EF400380E0020380E0020400E0020400E002006
:104F0400480E0020480E0020500E0020500E0020B5
:104F1400580E0020580E0020600E0020600E002065
:104F2400680E0020680E0020700E0020700E002015
:104F3400780E0020780E0020800E0020800E0020C5
:104F4400880E0020880E0020900E0020900E002075
:104F5400980E0020980E0020A00E0020A00E002025
:104F6400A80E0020A80E0020B00E0020B00E0020D5
:104F7400B80E0020B80E0020C00E0020C00E002085
:104F8400C80E0020C80E0020D00E0020D00E002035
:104F9400D80E0020D80E0020E00E0020E00E0020E5
:104FA400E80E0020E80E0020F00E0020F00E002095
:104FB400F80E0020F80E0020000F0020000F002043
:104FC400080F0020080F0020100F0020100F0020F1
:104FD400180F0020180F0020200F0020200F0020A1
:104FE400280F0020280F0020300F0020300F002051
:104FF400380F0020380F0020400F0020400F002001
:10500400480F0020480F0020500F0020500F0020B0
:10501400580F0020580F0020600F0020600F002060
:10502400680F0020680F0020700F0020700F002010
:10503400780F0020780F0020800F0020800F0020C0
:10504400880F0020880F0020900F0020900F002070
:10505400980F0020980F0020A00F0020A00F002020
:10506400A80F0020A80F0020B00F0020B00F0020D0
:10507400B80F0020B80F0020C00F0020C00F002080
:10508400C80F0020C80F0020D00F0020D00F002030
:10509400D80F0020D80F0020E00F0020E00F0020E0
:1050A400E80F0020E80F0020F00F0020F00F002090
:1050B400F80F0020F80F002000100020001000203E
:1050C40008100020081000201010002010100020EC
:1050D400181000201810002020100020201000209C
:1050E400281000202810002030100020301000204C
:1050F40038100020381000204010002040100020FC
:10510400581000200000000000000000A814002037
:105114001015002078150020000000000000000099
:10512400000000000000000000000000000000007B
:10513400000000000000000000000000000000006B
:10514400000000000000000000000000000000005B
:10515400000000000000000000000000000000004B
:10516400000000000000000000000000000000003B
:10517400000000000000000000000000000000002B
:10518400000000000000000000000000000000001B
:10519400000000000000000000000000000000000B
:1051A40001000000000000000E33CDAB34126DE6A8
:1051B400ECDE05000B000000000000000000000011
:1051C40000000000000000000000000000000000DB
:1051D40000000000000000000000000000000000CB
:1051E40000000000000000000000000000000000BB
:1051F40000000000000000000000000000000000AB
:10520400000000000000000000000000000000009A
:10521400000000000000000000000000000000008A
:10522400000000000000000000000000000000007A
:10523400000000000000000000000000000000006A
:10524400000000000000000000000000000000005A
:04000005100001E9FD
:00000001FF
